{
  "_format": "hh-sol-artifact-1",
  "contractName": "DeRandFeeManager",
  "sourceName": "contracts/DeRandFeeManager.sol",
  "abi": [
    {
      "inputs": [
        {
          "internalType": "address",
          "name": "_muonToken",
          "type": "address"
        },
        {
          "internalType": "uint256",
          "name": "_muonAppId",
          "type": "uint256"
        },
        {
          "components": [
            {
              "internalType": "uint256",
              "name": "x",
              "type": "uint256"
            },
            {
              "internalType": "uint8",
              "name": "parity",
              "type": "uint8"
            }
          ],
          "internalType": "struct IMuonClient.PublicKey",
          "name": "_muonPublicKey",
          "type": "tuple"
        },
        {
          "internalType": "address",
          "name": "_muonClient",
          "type": "address"
        }
      ],
      "stateMutability": "nonpayable",
      "type": "constructor"
    },
    {
      "inputs": [
        {
          "internalType": "address",
          "name": "target",
          "type": "address"
        }
      ],
      "name": "AddressEmptyCode",
      "type": "error"
    },
    {
      "inputs": [
        {
          "internalType": "address",
          "name": "account",
          "type": "address"
        }
      ],
      "name": "AddressInsufficientBalance",
      "type": "error"
    },
    {
      "inputs": [],
      "name": "FailedInnerCall",
      "type": "error"
    },
    {
      "inputs": [
        {
          "internalType": "address",
          "name": "owner",
          "type": "address"
        }
      ],
      "name": "OwnableInvalidOwner",
      "type": "error"
    },
    {
      "inputs": [
        {
          "internalType": "address",
          "name": "account",
          "type": "address"
        }
      ],
      "name": "OwnableUnauthorizedAccount",
      "type": "error"
    },
    {
      "inputs": [
        {
          "internalType": "address",
          "name": "token",
          "type": "address"
        }
      ],
      "name": "SafeERC20FailedOperation",
      "type": "error"
    },
    {
      "anonymous": false,
      "inputs": [
        {
          "indexed": false,
          "internalType": "address",
          "name": "executor",
          "type": "address"
        },
        {
          "indexed": false,
          "internalType": "uint256",
          "name": "id",
          "type": "uint256"
        }
      ],
      "name": "ExecutorAdded",
      "type": "event"
    },
    {
      "anonymous": false,
      "inputs": [
        {
          "indexed": false,
          "internalType": "address",
          "name": "depositor",
          "type": "address"
        },
        {
          "indexed": false,
          "internalType": "address",
          "name": "consumer",
          "type": "address"
        },
        {
          "indexed": false,
          "internalType": "uint256",
          "name": "chainId",
          "type": "uint256"
        },
        {
          "indexed": false,
          "internalType": "address",
          "name": "executor",
          "type": "address"
        },
        {
          "indexed": false,
          "internalType": "uint256",
          "name": "amount",
          "type": "uint256"
        }
      ],
      "name": "ExecutorDeposit",
      "type": "event"
    },
    {
      "anonymous": false,
      "inputs": [
        {
          "indexed": false,
          "internalType": "address",
          "name": "executor",
          "type": "address"
        },
        {
          "indexed": false,
          "internalType": "address",
          "name": "recipient",
          "type": "address"
        },
        {
          "indexed": false,
          "internalType": "uint256",
          "name": "amount",
          "type": "uint256"
        }
      ],
      "name": "ExecutorWithdraw",
      "type": "event"
    },
    {
      "anonymous": false,
      "inputs": [
        {
          "indexed": true,
          "internalType": "address",
          "name": "previousOwner",
          "type": "address"
        },
        {
          "indexed": true,
          "internalType": "address",
          "name": "newOwner",
          "type": "address"
        }
      ],
      "name": "OwnershipTransferred",
      "type": "event"
    },
    {
      "inputs": [
        {
          "internalType": "address",
          "name": "executor",
          "type": "address"
        }
      ],
      "name": "addExecutor",
      "outputs": [
        {
          "internalType": "uint256",
          "name": "",
          "type": "uint256"
        }
      ],
      "stateMutability": "nonpayable",
      "type": "function"
    },
    {
      "inputs": [
        {
          "internalType": "address",
          "name": "executor",
          "type": "address"
        }
      ],
      "name": "deleteExecutor",
      "outputs": [],
      "stateMutability": "nonpayable",
      "type": "function"
    },
    {
      "inputs": [
        {
          "internalType": "address",
          "name": "_consumer",
          "type": "address"
        },
        {
          "internalType": "uint256",
          "name": "_chainId",
          "type": "uint256"
        },
        {
          "internalType": "address",
          "name": "_executor",
          "type": "address"
        },
        {
          "internalType": "uint256",
          "name": "_amount",
          "type": "uint256"
        }
      ],
      "name": "depositForExecutor",
      "outputs": [],
      "stateMutability": "nonpayable",
      "type": "function"
    },
    {
      "inputs": [
        {
          "internalType": "address",
          "name": "",
          "type": "address"
        },
        {
          "internalType": "uint256",
          "name": "",
          "type": "uint256"
        },
        {
          "internalType": "address",
          "name": "",
          "type": "address"
        }
      ],
      "name": "deposits",
      "outputs": [
        {
          "internalType": "uint256",
          "name": "",
          "type": "uint256"
        }
      ],
      "stateMutability": "view",
      "type": "function"
    },
    {
      "inputs": [
        {
          "internalType": "address",
          "name": "_to",
          "type": "address"
        },
        {
          "internalType": "uint256",
          "name": "_amount",
          "type": "uint256"
        },
        {
          "internalType": "bytes",
          "name": "_reqId",
          "type": "bytes"
        },
        {
          "components": [
            {
              "internalType": "uint256",
              "name": "signature",
              "type": "uint256"
            },
            {
              "internalType": "address",
              "name": "owner",
              "type": "address"
            },
            {
              "internalType": "address",
              "name": "nonce",
              "type": "address"
            }
          ],
          "internalType": "struct IMuonClient.SchnorrSign",
          "name": "_signature",
          "type": "tuple"
        }
      ],
      "name": "executorWithdraw",
      "outputs": [],
      "stateMutability": "nonpayable",
      "type": "function"
    },
    {
      "inputs": [
        {
          "internalType": "address",
          "name": "",
          "type": "address"
        }
      ],
      "name": "executors",
      "outputs": [
        {
          "internalType": "uint256",
          "name": "id",
          "type": "uint256"
        },
        {
          "internalType": "uint256",
          "name": "balance",
          "type": "uint256"
        },
        {
          "internalType": "uint256",
          "name": "withdrawnBalance",
          "type": "uint256"
        }
      ],
      "stateMutability": "view",
      "type": "function"
    },
    {
      "inputs": [],
      "name": "lastExecutorId",
      "outputs": [
        {
          "internalType": "uint256",
          "name": "",
          "type": "uint256"
        }
      ],
      "stateMutability": "view",
      "type": "function"
    },
    {
      "inputs": [],
      "name": "muonAppId",
      "outputs": [
        {
          "internalType": "uint256",
          "name": "",
          "type": "uint256"
        }
      ],
      "stateMutability": "view",
      "type": "function"
    },
    {
      "inputs": [],
      "name": "muonClient",
      "outputs": [
        {
          "internalType": "contract IMuonClient",
          "name": "",
          "type": "address"
        }
      ],
      "stateMutability": "view",
      "type": "function"
    },
    {
      "inputs": [],
      "name": "muonPublicKey",
      "outputs": [
        {
          "internalType": "uint256",
          "name": "x",
          "type": "uint256"
        },
        {
          "internalType": "uint8",
          "name": "parity",
          "type": "uint8"
        }
      ],
      "stateMutability": "view",
      "type": "function"
    },
    {
      "inputs": [],
      "name": "muonToken",
      "outputs": [
        {
          "internalType": "contract IERC20",
          "name": "",
          "type": "address"
        }
      ],
      "stateMutability": "view",
      "type": "function"
    },
    {
      "inputs": [],
      "name": "owner",
      "outputs": [
        {
          "internalType": "address",
          "name": "",
          "type": "address"
        }
      ],
      "stateMutability": "view",
      "type": "function"
    },
    {
      "inputs": [
        {
          "internalType": "address",
          "name": "_tokenAddress",
          "type": "address"
        },
        {
          "internalType": "address",
          "name": "_to",
          "type": "address"
        },
        {
          "internalType": "uint256",
          "name": "_amount",
          "type": "uint256"
        }
      ],
      "name": "ownerWithdraw",
      "outputs": [],
      "stateMutability": "nonpayable",
      "type": "function"
    },
    {
      "inputs": [],
      "name": "renounceOwnership",
      "outputs": [],
      "stateMutability": "nonpayable",
      "type": "function"
    },
    {
      "inputs": [
        {
          "internalType": "address",
          "name": "newOwner",
          "type": "address"
        }
      ],
      "name": "transferOwnership",
      "outputs": [],
      "stateMutability": "nonpayable",
      "type": "function"
    }
  ],
  "bytecode": "0x608060405234801561001057600080fd5b50604051620010c0380380620010c083398101604081905261003191610124565b338061005757604051631e4fbdf760e01b81526000600482015260240160405180910390fd5b610060816100b8565b50600280546001600160a01b039586166001600160a01b03199182161790915560039390935581516004556020909101516005805460ff90921660ff19909216919091179055600680549190931691161790556101cc565b600080546001600160a01b038381166001600160a01b0319831681178455604051919092169283917f8be0079c531659141344cd1fd0a4f28419497f9722a3daafe3b4186f6b6457e09190a35050565b80516001600160a01b038116811461011f57600080fd5b919050565b60008060008084860360a081121561013b57600080fd5b61014486610108565b9450602086015193506040603f198201121561015f57600080fd5b50604080519081016001600160401b038111828210171561019057634e487b7160e01b600052604160045260246000fd5b60409081528601518152606086015160ff811681146101ae57600080fd5b602082015291506101c160808601610108565b905092959194509250565b610ee480620001dc6000396000f3fe608060405234801561001057600080fd5b50600436106100f55760003560e01c80638da5cb5b11610097578063b3f74d8911610066578063b3f74d891461022d578063eb35117c14610236578063f2fde38b14610249578063f4a138141461025c57600080fd5b80638da5cb5b146101a15780639ac2a011146101b2578063a4fec9e7146101fc578063af663e9b1461020557600080fd5b80634628548f116100d35780634628548f14610160578063492aceb9146101735780636fd8996414610186578063715018a61461019957600080fd5b806317c8440d146100fa5780631f5a0bbe1461012a5780632bcaa0e21461014b575b600080fd5b60065461010d906001600160a01b031681565b6040516001600160a01b0390911681526020015b60405180910390f35b61013d610138366004610bac565b61028d565b604051908152602001610121565b61015e610159366004610bc7565b61032f565b005b61015e61016e366004610bac565b6103df565b60025461010d906001600160a01b031681565b61015e610194366004610c03565b6103ea565b61015e610548565b6000546001600160a01b031661010d565b6101e16101c0366004610bac565b60076020526000908152604090208054600182015460029092015490919083565b60408051938452602084019290925290820152606001610121565b61013d60015481565b600454600554610216919060ff1682565b6040805192835260ff909116602083015201610121565b61013d60035481565b61015e610244366004610cad565b61055c565b61015e610257366004610bac565b6107db565b61013d61026a366004610cf1565b600860209081526000938452604080852082529284528284209052825290205481565b6001600160a01b038116600090815260076020526040812054156102f85760405162461bcd60e51b815260206004820152601760248201527f4578656375746f7220616c72656164792065786973747300000000000000000060448201526064015b60405180910390fd5b6001805490600061030883610d43565b9091555050506001600160a01b031660009081526007602052604090206001549081905590565b610337610816565b6001600160a01b03821661037c5760405162461bcd60e51b815260206004820152600c60248201526b5a65726f206164647265737360a01b60448201526064016102ef565b6001600160a01b0383166103c6576040516001600160a01b0383169082156108fc029083906000818181858888f193505050501580156103c0573d6000803e3d6000fd5b50505050565b6103da6001600160a01b0384168383610843565b505050565b6103e7610816565b50565b336000908152600760205260409020805461043a5760405162461bcd60e51b815260206004820152601060248201526f24b73b30b634b21032bc32b1baba37b960811b60448201526064016102ef565b80600101548511156104825760405162461bcd60e51b81526020600482015260116024820152704e6f20656e6f7567682062616c616e636560781b60448201526064016102ef565b60006003548585338960405160200161049f959493929190610d5c565b6040516020818303038152906040528051906020012090506104c3858583866108a2565b60008260020154876104d59190610d96565b6002808501899055549091506104f5906001600160a01b03168983610843565b604080513381526001600160a01b038a1660208201529081018890527f23a9f40c20f61e4ec101c7a905b766056905444c86f33cd65229621ba02fb5fb9060600160405180910390a15050505050505050565b610550610816565b61055a6000610969565b565b6001600160a01b0382166000908152600760205260409020546105b45760405162461bcd60e51b815260206004820152601060248201526f24b73b30b634b21032bc32b1baba37b960811b60448201526064016102ef565b6002546040516370a0823160e01b81523060048201526000916001600160a01b0316906370a0823190602401602060405180830381865afa1580156105fd573d6000803e3d6000fd5b505050506040513d601f19601f820116820180604052508101906106219190610da9565b60025490915061063c906001600160a01b03163330856109b9565b6002546040516370a0823160e01b815230600482015260009183916001600160a01b03909116906370a0823190602401602060405180830381865afa158015610689573d6000803e3d6000fd5b505050506040513d601f19601f820116820180604052508101906106ad9190610da9565b6106b79190610d96565b90508083146107085760405162461bcd60e51b815260206004820152601b60248201527f526563656976656420616d6f756e742064697363726570616e6379000000000060448201526064016102ef565b6001600160a01b038087166000908152600860209081526040808320898452825280832093881683529290529081208054859290610747908490610dc2565b90915550506001600160a01b03841660009081526007602052604081206001018054859290610777908490610dc2565b9091555050604080513381526001600160a01b038881166020830152818301889052861660608201526080810185905290517f575deeb3d259fcec171e45278c6500f9e9d9a082324c2de05ffe14b5ef2eb63a9181900360a00190a1505050505050565b6107e3610816565b6001600160a01b03811661080d57604051631e4fbdf760e01b8152600060048201526024016102ef565b6103e781610969565b6000546001600160a01b0316331461055a5760405163118cdaa760e01b81523360048201526024016102ef565b6040516001600160a01b038381166024830152604482018390526103da91859182169063a9059cbb906064015b604051602081830303815290604052915060e01b6020820180516001600160e01b0383818316178352505050506109f2565b600654604051637669c2bb60e01b81526000916001600160a01b031690637669c2bb906108db9088908890889088906004908101610dd5565b6020604051808303816000875af11580156108fa573d6000803e3d6000fd5b505050506040513d601f19601f8201168201806040525081019061091e9190610e5d565b9050806109625760405162461bcd60e51b8152602060048201526012602482015271496e76616c6964207369676e61747572652160701b60448201526064016102ef565b5050505050565b600080546001600160a01b038381166001600160a01b0319831681178455604051919092169283917f8be0079c531659141344cd1fd0a4f28419497f9722a3daafe3b4186f6b6457e09190a35050565b6040516001600160a01b0384811660248301528381166044830152606482018390526103c09186918216906323b872dd90608401610870565b6000610a076001600160a01b03841683610a55565b90508051600014158015610a2c575080806020019051810190610a2a9190610e5d565b155b156103da57604051635274afe760e01b81526001600160a01b03841660048201526024016102ef565b6060610a6383836000610a6c565b90505b92915050565b606081471015610a915760405163cd78605960e01b81523060048201526024016102ef565b600080856001600160a01b03168486604051610aad9190610e7f565b60006040518083038185875af1925050503d8060008114610aea576040519150601f19603f3d011682016040523d82523d6000602084013e610aef565b606091505b5091509150610aff868383610b0b565b925050505b9392505050565b606082610b2057610b1b82610b67565b610b04565b8151158015610b3757506001600160a01b0384163b155b15610b6057604051639996b31560e01b81526001600160a01b03851660048201526024016102ef565b5080610b04565b805115610b775780518082602001fd5b604051630a12f52160e11b815260040160405180910390fd5b80356001600160a01b0381168114610ba757600080fd5b919050565b600060208284031215610bbe57600080fd5b610a6382610b90565b600080600060608486031215610bdc57600080fd5b610be584610b90565b9250610bf360208501610b90565b9150604084013590509250925092565b600080600080600085870360c0811215610c1c57600080fd5b610c2587610b90565b955060208701359450604087013567ffffffffffffffff80821115610c4957600080fd5b818901915089601f830112610c5d57600080fd5b813581811115610c6c57600080fd5b8a6020828501011115610c7e57600080fd5b6020929092019550909350506060605f1982011215610c9c57600080fd5b506060860190509295509295909350565b60008060008060808587031215610cc357600080fd5b610ccc85610b90565b935060208501359250610ce160408601610b90565b9396929550929360600135925050565b600080600060608486031215610d0657600080fd5b610d0f84610b90565b925060208401359150610d2460408501610b90565b90509250925092565b634e487b7160e01b600052601160045260246000fd5b600060018201610d5557610d55610d2d565b5060010190565b8581528385602083013760609290921b6bffffffffffffffffffffffff191660209390920192830191909152603482015260540192915050565b81810381811115610a6657610a66610d2d565b600060208284031215610dbb57600080fd5b5051919050565b80820180821115610a6657610a66610d2d565b60e081528460e08201526000610100868882850137600081888501015280601f19601f89011684010191505084602083015283356040830152610e1a60208501610b90565b6001600160a01b03818116606085015280610e3760408801610b90565b1660808501525050825460a083015260ff60018401541660c08301529695505050505050565b600060208284031215610e6f57600080fd5b81518015158114610b0457600080fd5b6000825160005b81811015610ea05760208186018101518583015201610e86565b50600092019182525091905056fea2646970667358221220c694d9326acf4507bf9746679e6eeede40a74ce4f7930ae219c6a70fc48d3cda64736f6c63430008140033",
  "linkReferences": {},
  "deployedLinkReferences": {}
}